:020000040800F2
:1000000010110020F101000853120008E90C00084B
:100010004F120008C90A0008D7200008000000009D
:10002000000000000000000000000000951800081B
:10003000CD0A00080000000045170008A9190008B3
:100040000B0200080B0200080B0200080B0200085C
:100050000B0200080B0200080B0200080B0200084C
:100060000B0200080B0200080B0200080B0200083C
:100070000B0200080B0200080B0200080B0200082C
:100080000B0200080B0200080B0200080B0200081C
:100090000B0200080B0200080B0200080B0200080C
:1000A0000B0200080B0200080B0200080B020008FC
:1000B0000B020008151B0008911B00080B0200082A
:1000C0000B0200080B0200080B0200080B020008DC
:1000D0000B020008B51E00080B0200080B02000806
:1000E0000B0200080B0200080B02000800F002F8E7
:1000F00000F06FF80AA090E8000C82448344AAF153
:100100000107DA4501D100F064F8AFF2090EBAE850
:100110000F0013F0010F18BFFB1A43F0010318473B
:10012000748B0000948B000010F8013B0A4413F01C
:10013000030408BF10F8014B1D1108BF10F8015B44
:10014000641E05D010F8016B641E01F8016BF9D133
:10015000002D15D010F8014B03F00C030C2BA1EB74
:1001600004040ABF10F8013BA4EB8314A4EB03249E
:1001700005F1010314F8016B5B1E01F8016BF9D561
:10018000914238BF10F8013BD1D3704700230024BF
:1001900000250026103A28BF78C1FBD8520728BF97
:1001A00030C148BF0B607047642900F0C3807529D7
:1001B00000F0C080782900F0F980632900F0038303
:1001C000732900F00883002070471FB51FBD10B5CC
:1001D00010BD00F085FB1146FFF7F7FF03F074FD3B
:1001E00000F0A3FB03B4FFF7F2FF03BC01F0F9FF3B
:1001F0000948804709480047FEE7FEE7FEE7FEE7BB
:10020000FEE7FEE7FEE7FEE7FEE7FEE704480549F6
:10021000054A064B70470000AD190008ED000008C4
:10022000100B002010110020100D0020100D0020D8
:10023000704710B54C1084EA530404D54042C1F114
:10024000000138BF491E1B4204D55242C3F10003CE
:1002500038BF5B1E00F0D2F914F0804F04D040424A
:10026000C1F1000138BF491E14F0004F04D05242C2
:10027000C3F1000338BF5B1E10BD00000FB404497A
:1002800010B503AA029800F0ABFA10BC5DF814FB9D
:100290002C08002070B5044685690068C10601D5A8
:1002A000302600E02026C00707D070BDD4E9012128
:1002B00030469047206A401C20626D1EF6D570BD06
:1002C00070B5044685690078C00707D170BDD4E9D0
:1002D000012120209047206A401C20626D1EF6D527
:1002E00070BD70B50C460546012A05D028788006F9
:1002F00000D5EA69002302E0012305E05B1C93427C
:1003000002D2E05C0028F9D1A869E618C01AA861F9
:10031000286A184428622846FFF7BCFF04E0D5E9A4
:10032000012114F8010B9047B442F8D32846FFF797
:10033000C7FF70BD2DE9F0410646002410687529FD
:10034000314616A510D0AFF30080002802DA4042F3
:1003500013A507E031688A0701D512A502E0490715
:1003600004D511A5012401E0AFF3008000210A2289
:1003700006F1240709E0B0FBF2FCB0FBF2F302FB4C
:100380001C00303078541846491C0028F3D123460D
:100390002A463046BDE8F04100F0B2B90000000046
:1003A0002D0000002B0000002000000070B5044666
:1003B0000D4621461068AFF300802188090502D55B
:1003C0000F4A7A4402E00E4A7A440E32002104F1C8
:1003D000240305E000F00F060009965D5E54491CF9
:1003E0000028F7D120780023000704D5702D02D013
:1003F00009B1022311322046BDE8704000F080B9F7
:10040000BC8600002DE9F05F894604464FF0000AE3
:10041000DFF874B1FB44C0F820A02046E1688847AB
:10042000002874D0252806D0D4E901219047206AFD
:10043000401C2062F1E700265F462046E1688847BD
:100440002028054607DB312D05D2781910F8200C3D
:1004500008B10643F1E7B00701D526F00406C4F859
:100460001CA00027C4F818A02A2D09D0284601F0A6
:10047000B1FE38B304EB8708303DC8F8185019E0D6
:1004800059F8041B204604EB87029161E168884714
:10049000012F054618D1E069002820DA26F0200651
:1004A0001DE0D8F8180000EB800005EB4000303864
:1004B000C8F818002046E1688847054601F08AFE22
:1004C0000028EED1012F0AD02E2D08D12046E16858
:1004D00088477F1C0546022F46F02006C4DBA06932
:1004E000002803DA404246F00106A061F00701D07F
:1004F00026F010066C2D0BD0682D09D04C2D39D06C
:100500006A2D35D0742D35D07A2D33D016E038E0F1
:10051000E1682F4620468847B842054609D16C2F2E
:1005200026D04FF48060E1680643204688470546A0
:1005300004E06C2F1AD04FF4807006430DB3A5F180
:100540004100192802D8203546F400664A4629465B
:10055000204626604E46FFF727FE80B101280BD0CB
:10056000F61D26F0070000F1080956E74020E4E7F1
:100570008020D8E70020D6E706F104094DE7284699
:1005800052E7206ABDE8F09F9286000040EA01032E
:1005900010B59B070FD1042A0DD310C808C9121F2C
:1005A0009C42F8D020BA19BA884201D9012010BD66
:1005B0004FF0FF3010BD1AB1D30703D0521C07E033
:1005C000002010BD10F8013B11F8014B1B1B07D197
:1005D00010F8013B11F8014B1B1B01D1921EF1D108
:1005E000184610BD02F0FF0343EA032242EA02422A
:1005F00000F00AB9704770477047704753EA020C21
:1006000000F069802DE9F04B4FF00006002B1FBF72
:10061000B3FA83F503FA05F424FA05F65E4012BF37
:100620001643B2FA82F502FA05F4C5F120051EBFA1
:1006300022FA05FC44EA0C04203556EA044C4FEA41
:10064000144418BF641C4FF000084FF0000990429A
:1006500071EB030C39D3002919BFB1FA81F701FA04
:1006600007F6B0FA80F700FA07F6C7F120071EBFB9
:1006700020FA07FC46EA0C062037B6FBF4FCA7EB91
:100680000507103F07F01F0BCBF120060CFA0BFB00
:100690002CFA06F644BFB3460026202FA4BF5E46C0
:1006A0004FF0000B5BEA060C08BF4FF0010B19EB93
:1006B0000B09ABFB027C48EB0608C01B06FB02CC17
:1006C0000BFB03CC71EB0C01C1E70B460246414624
:1006D0004846BDE8F08B13B54FF000004FF0000125
:1006E000AFF30080BDE81C40704710B500F0ACF8D7
:1006F000006810BD10B5044600F0A6F8046010BDF7
:100700002DE9F0470D4699469246044600F124082B
:100710000168880604D5E06921F01001216000E03D
:100720000120A84201DD471B00E00027A1697A19DA
:1007300002EB0900081AA0612078C00602D4204606
:10074000FFF7A8FD002608E0D4E901211AF8060009
:100750009047206A401C761C20624E45F4DB2078CE
:10076000C0060AD52046FFF795FD06E0D4E9012131
:1007700030209047206A401C2062381EA7F10107F4
:10078000F4DC07E0D4E9012118F805009047206A5D
:10079000401C2062281EA5F10105F3DC2046FFF76E
:1007A0008FFD2078000602D50220BDE8F0870120E9
:1007B000FBE710B5436913B1AFF3008001E0FFF729
:1007C00090FD012010BD127800F124010A70002272
:1007D0004A700122EDE711684FF0FF32E9E70000AF
:1007E000074B70B50D467B4400F037F804462846A9
:1007F00000F046F810B14FF0FF3070BD204670BDDC
:10080000132E00004FF000020429C0F0128010F0F7
:10081000030C00F03B80CCF1040CBCF1020F18BFBC
:1008200000F8012BA8BF20F8022BA1EB0C0100F06F
:100830002DB85FEAC17C24BF00F8012B00F8012B22
:1008400048BF00F8012B704700487047B00A0020ED
:1008500001694A1C02610878704700B58FB0CDE984
:1008600001310021059105497944CDE90310114674
:100870006846FFF7C7FD0FB000BD0000E5FFFFFFB2
:10088000007B00F0800070474FF0000200B5134677
:1008900094469646203922BFA0E80C50A0E80C50A0
:1008A000B1F12001BFF4F7AF090728BFA0E80C5051
:1008B00048BF0CC05DF804EB890028BF40F8042B4A
:1008C00008BF704748BF20F8022B11F0804F18BFB7
:1008D00000F8012B7047000000487047B00A002064
:1008E0007546FFF7F9FFAE4605006946534620F00E
:1008F0000700854618B020B5FFF788FCBDE820400A
:100900004FF000064FF000074FF000084FF0000BCB
:1009100021F00701AC46ACE8C009ACE8C009ACE87E
:10092000C009ACE8C0098D46704710B50446AFF366
:1009300000802046BDE81040FFF754BC21B182681A
:1009400042F00102826003E0826822F001028260CC
:100950007047000010B504461248844208D10121B6
:10096000401500F01DFF0021601500F019FF17E091
:100970000D48844208D10121001500F011FF00212B
:10098000201500F00DFF0BE00848844208D101213A
:10099000C80300F005FF00214FF4004000F000FF05
:1009A00010BD00000024014000280140003C01402F
:1009B000014600208A6802F004020AB1012000E02A
:1009C00000207047014600208A6802F008020AB140
:1009D000012000E00020704730B5024600200023CF
:1009E00050680F4C20400D790C6844EA05242043E0
:1009F000506090680B4C2040D1E902542C434D7953
:100A000044EA450420439060D06A20F470000C7CD6
:100A1000641EE4B2234340EA0350D06230BD0000BC
:100A2000FFFEF0FFFDF7F1FF816841F008018160F2
:100A30007047816841F004018160704700B587B05C
:100A400001214FF4017000F09BFE4FF4004000F0D4
:100A50007BFE0420ADF8040000208DF8070001A9FA
:100A6000174800F069F81748FFF774FF002002905C
:100A70008DF80C008DF80D004FF4602004900020DC
:100A8000059001208DF8180002A90E48FFF7A4FF79
:100A900001210C48FFF752FF0A48FFF7C5FF00BFCE
:100AA0000848FFF78FFF0028FAD10648FFF7C1FF7B
:100AB00000BF0448FFF77CFF0028FAD107B000BD53
:100AC000000801400024014000BFFEE7704700001D
:100AD00038B5114A1149124803F06AF90E48006806
:100AE00006F018FB0F490860102004230090084608
:100AF00002210268322000F023FD00F0BFFD054610
:100B000000F012F804461020042322460021009031
:100B1000322000F015FD38BD1C0800201808002008
:100B200014080020200800200146002901DD0A46A3
:100B300000E04A42104670472DE9F0410246002588
:100B40000026002000230024002791F803C00CF0A9
:100B50000F0591F803C00CF0100CBCF1000F03D08E
:100B600091F802C04CEA050591F800C0BCF1000FF5
:100B700031D0146800202BE04FF0010C0CFA00F388
:100B8000B1F800C00CEA03069E4220D183004FF06A
:100B90000F0C0CFA03F7BC4305FA03FC4CEA0404FF
:100BA00091F803C0BCF1280F06D14FF0010C0CFAEC
:100BB00000FCC2F814C00AE091F803C0BCF1480F71
:100BC00005D14FF0010C0CFA00FCC2F810C0401C1B
:100BD0000828D1D31460B1F800C0BCF1FF0F34DD98
:100BE000546800202EE000F1080C4FF0010808FACC
:100BF0000CF3B1F800C00CEA03069E4221D1830039
:100C00004FF00F0C0CFA03F7BC4305FA03FC4CEA57
:100C1000040491F803C0BCF1280F05D100F1080CC1
:100C200008FA0CF8C2F8148091F803C0BCF1480F20
:100C300007D100F1080C4FF0010808FA0CF8C2F8CF
:100C40001080401C0828CED35460BDE8F08100001D
:100C5000F0B50A46002300240021002500F00046DC
:100C6000B6F1004F02D11D4EF16901E01B4E7168D3
:100C7000C0F3034583B200F44016B6F5401F08D117
:100C800021F07061154E766826F07066134F7E6015
:100C900012E000F48016B6F5801F06D1032606FA8E
:100CA00005F4A14341F0706106E0460D360103FAF8
:100CB00006F6B14341F0706122B1460D360103FAE8
:100CC00006F6314300F00046B6F1004F02D1034E64
:100CD000F16101E0014E7160F0BD000000000140D3
:100CE000416170470161704700BFFEE770B504467F
:100CF000002C06DB2046FFF717FF054605F0FAFA41
:100D000005E02046FFF710FF054602F053FC70BDDA
:100D100010B500200E4908600E48006820F47040AD
:100D20000C4908600846006840F440500860002004
:100D30000949C1F8AC0100F011F80120044908602C
:100D400000F00CF800200449C1F8A80110BD000013
:100D5000A8812142040C01400080214210B50220EC
:100D600001F028FE10BD000008B50121082000F0A8
:100D700007FD4FF44060ADF8000010208DF803002F
:100D800003208DF8020069460448FFF7D5FE4FF4B2
:100D900040610248FFF7A6FF08BD0000000C0140BB
:100DA00010B500200E4908600E48006820F470401D
:100DB0000C4908600846006840F440500860012073
:100DC0000949C1F8AC01FFF7C9FF012004490860D7
:100DD000FFF7C4FF00200449C1F8A80110BD0000BE
:100DE000A8812142040C01400080214270B50546D3
:100DF00000241648006820F4704014490860084632
:100E0000006840F400400860002614E0002010490B
:100E10000860FFF7A3FF01200E49C1F8A801600692
:100E2000040E0B487C38006808B1601CC4B2FFF7A0
:100E300095FF701CC6B2082EE8DB15B9FFF7B0FFAE
:100E400001E0FFF765FF204670BD0000040C014083
:100E5000A88121420080214270B5044612480068F2
:100E600020F47040104908600846006840F4405083
:100E7000086000200D490860002512E0E0090B49D8
:100E8000091D08606006040E01200949C1F8A80187
:100E9000FFF764FF002005490860FFF75FFF681C4B
:100EA000C5B2082DEADB70BD040C0140A8812142C7
:100EB0000080214210B50E48006820F470400C49B3
:100EC00008600846006840F4405008600120094965
:100ED00008600949C1F8A801FFF740FF0020054953
:100EE0000860FFF73BFF00200349C1F8A80110BDCF
:100EF000040C0140AC8121420080214210B50E4813
:100F0000006820F470400C4908600846006840F40E
:100F1000405008600020094908600949C1F8AC0147
:100F2000FFF71CFF0120054908600549C1F8AC0125
:100F3000FFF714FF10BD0000040C0140A8812142FE
:100F40000080214210B500241448006820F470404D
:100F5000124908600846006840F40040086001201B
:100F60000F490860FFF7FAFE01200E49C1F8A801F9
:100F7000FFF7F4FE07E0601CC4B2FA2C03DDFFF7B4
:100F8000BDFF012010BD0648803800680028F2D15E
:100F90000349091F086000BFF4E70000040C01408A
:100FA000AC8121420080214238B50121084600F081
:100FB000E7FB0121042000F0E3FB4FF40040ADF813
:100FC000000010208DF8030003208DF80200694610
:100FD0002248FFF7B1FD01212148FFF739FE00202B
:100FE00020490860FFF7C0FE80216B2000F0DDF88B
:100FF000642001F0B9FC00216B2000F0D6F803203A
:1010000000F091F8002000F086F80A2000F0B0F817
:101010000021382000F0C9F800216A2000F0C5F84E
:101020000021232000F0C1F88021372000F0BDF816
:10103000752000F019F80446682C0BD101216B20B3
:1010400000F0B3F800216C2000F0AFF80A2000F0A7
:101050008FF801E0012038BD0020FCE700080140C6
:1010600000023000BC01214270B50446FFF722FFA8
:10107000D020FFF7F1FEFFF765FF2046FFF7ECFEFB
:10108000FFF760FFFFF716FFD120FFF7E5FEFFF740
:1010900059FF0020FFF7AAFE0546FFF72FFF28465D
:1010A00070BD2DE9F04106460F4614461D46FFF778
:1010B00001FF002141EA4601C8B2FFF7CDFEFFF76C
:1010C00041FF20B1FFF71AFF0120BDE8F08138464B
:1010D000FFF7C2FEFFF736FFFFF7ECFE012101EB41
:1010E0004601C8B2FFF7B8FEFFF72CFF0DE0012C58
:1010F00004D10020FFF77AFE287003E00120FFF7FB
:1011000075FE2870601EC4B26D1C002CEFD1FFF775
:10111000F5FE0020D9E710B50446E006010E1C20BC
:1011200000F043F810BD10B50446E006010E1B2088
:1011300000F03BF810BD70B504460025BC2C01DB67
:10114000012510E0622C01DB02250CE02A2C01DBDA
:10115000032508E0142C01DB042504E00A2C01DB44
:10116000052500E0062529461A2000F01EF870BD6E
:1011700070B50446B4F57A7F01DD4FF47A74042C1F
:1011800000DA04244FF47A7090FBF4F0401EC5B2EC
:101190002946192000F009F80546264604EBD671C9
:1011A000C1F34F00FFF7C7FF70BD70B505460C4691
:1011B000FFF780FED020FFF74FFEFFF7C3FE18B108
:1011C000FFF79CFE012070BD2846FFF745FEFFF7A4
:1011D000B9FE2046FFF740FEFFF7B4FE18B1FFF757
:1011E0008DFE0120EFE7FFF789FE0020EBE72DE9F8
:1011F000F04105460E4617469846FFF75BFE002174
:1012000041EA4501C8B2FFF727FEFFF79BFE20B178
:10121000FFF774FE0120BDE8F0813046FFF71CFEA9
:10122000FFF790FE00240CE018F80400FFF714FE0E
:10123000FFF788FE18B1FFF761FE0120EBE7601CA5
:10124000C4B2BC42F0DBFFF759FE0020E3E700BF69
:10125000FEE7704710B54FF4A06000F039F810BDFC
:1012600070B5002100230F22C47804B3154C246804
:1012700004F4E064C4F5E064210AC1F10403CA4047
:10128000447804FA03F184781440214309010E4C98
:101290000678A155047804F01F050124AC400578B8
:1012A0006D11AD0005F1E025C5F8004109E00478B5
:1012B00004F01F050124AC40044D0678761145F872
:1012C000264070BD0CED00E000E400E080E100E0AD
:1012D00002490143024A1160704700000000FA050C
:1012E0000CED00E070B5002419E004F1B001C8B2C3
:1012F000002100F067F90021084600F063F90021A1
:10130000102000F05FF9002505E00121002000F029
:1013100059F9681CC5B2802DF7DB601CC4B2082CDB
:10132000E3DB70BD08B50121042000F029FAA820F4
:10133000ADF8000010208DF8030003208DF80200A6
:1013400069465548FFF7F8FBA8215348FFF7CAFC48
:101350000121082000F014FA40F20310ADF800005B
:1013600010208DF8030003208DF8020069464B48D9
:10137000FFF7E2FB40F203114848FFF7B3FC0121FD
:101380004648FFF7AFFC642001F0EEFA0121434824
:10139000FFF7A6FCC82001F0E7FA01213F48FFF75C
:1013A000A1FC0021AE2000F00DF90021084600F05C
:1013B00009F90021102000F005F90021402000F07B
:1013C00001F90021812000F0FDF80021CF2000F07C
:1013D000F9F80021A12000F0F5F80021C82000F064
:1013E000F1F80021A62000F0EDF80021A82000F07F
:1013F000E9F800213F2000F0E5F80021D32000F0BB
:10140000E1F80021084600F0DDF80021D52000F0C9
:10141000D9F80021802000F0D5F80021D92000F073
:10142000D1F80021F12000F0CDF80021DA2000F001
:10143000C9F80021122000F0C5F80021DB2000F0DF
:10144000C1F80021402000F0BDF80021202000F06C
:10145000B9F80021022000F0B5F800218D2000F03D
:10146000B1F80021142000F0ADF80021A42000F014
:10147000A9F80021A62000F0A5F80021AF2000F077
:10148000A1F80021AF2000F09DF8FFF72BFF00210D
:10149000084600F005F808BD00080140000C0140B6
:1014A00070B504460D4605F1B001C8B2002100F048
:1014B00089F8102141EA1410002100F083F804F0AB
:1014C0000F0141F00100002100F07CF870BD000028
:1014D0002DE9F04107460E46904600250024A8F16C
:1014E0002000C5B27F2F02DD0027B01CC6B23146F6
:1014F0003846FFF7D5FF002408E004EB05110F4A3A
:10150000505C012100F05EF8601CC4B2082CF4DBD2
:10151000701CC1B23846FFF7C3FF002409E004EB9A
:1015200005110831054A505C012100F04BF8601CA0
:10153000C4B2082CF3DBBDE8F08100004A78000853
:101540002DE9FF5F074691461D460E9E4FF0000AAB
:10155000002433E0281B401EC1B20A2003F01CFD0A
:10156000B9FBF0F00A21B0FBF1F201FB1208BAF16D
:10157000000F13D1681EA04210DDB8F1000F0BD18F
:10158000B34606EBDB71491001FB0471C8B220229F
:101590000199FFF79DFF0FE04FF0010AB34606EBFC
:1015A000DB71491001FB0471C8B208F13001CAB205
:1015B0000199FFF78DFF00BF601CC4B2AC42C9DBCC
:1015C000BDE8FF9F70B504460E4626B102211848BB
:1015D000FFF788FB03E002211548FFF781FB082194
:1015E0001448FFF77DFB002517E020211148FFF785
:1015F00077FB04F0800020B180210E48FFF772FBDA
:1016000003E080210B48FFF76BFB20210948FFF71F
:1016100069FB6006040E681CC5B2082DE5DB0821D5
:101620000448FFF75FFB02210148FFF75BFB70BD39
:10163000000C0140000801400A4800680A4908609F
:101640000A480068486000208860C860084808614F
:1016500008484861084888610020C86108624862FB
:101660007047000024080020880A0020200800207D
:10167000000048420AD7A33B000048C42DE9F05FB0
:101680002C4800682C4908602C48006848600846CF
:1016900000684968401A284988600846406A896895
:1016A0000844254948628968234AD268881A05F0A7
:1016B0006DFD814620488169484605F0C7FD074613
:1016C0001D49486A05F062FD83461B48416958463A
:1016D00005F0BCFD81461849886805F057FD834632
:1016E00015480169584605F0B1FD8246494605F0A6
:1016F000ADFB8046394605F0A9FB06460E48C16998
:10170000304605F0A3FB054605F004FD0A490862D2
:1017100008468068C8600846046AB4F5616F02DB59
:1017200041F61F4403E014F5616F00DC044C2046D1
:10173000BDE8F09F24080020880A0020200800202F
:10174000E1E3FFFF7047000001460020034A5068B4
:1017500020F44040084350607047000000100240F1
:1017600029B1064AD2690243044BDA6104E0034A14
:10177000D2698243014BDA617047000000100240D9
:1017800029B1064A92690243044B9A6104E0034A74
:1017900092698243014B9A61704700000010024039
:1017A00029B1064AD2680243044BDA6004E0034AD6
:1017B000D2688243014BDA6070470000001002409B
:1017C00030B500210022002400232D4D6D6805F066
:1017D0000C0121B1042905D0082923D105E0294DA8
:1017E000056022E0274D05601FE0254D6D6805F47A
:1017F0007012234D6D6805F48034022505EB92428A
:101800001CB9214D554305600BE01D4D6D6805F475
:1018100000351DB11C4D5543056002E0194D55437F
:10182000056002E0174D056000BF00BF144D6D68F4
:1018300005F0F0010909154D6B5C0568DD40456058
:101840000F4D6D6805F4E061090A104D6B5C456849
:10185000DD4085600A4D6D6805F46051C90A0B4D85
:101860006B5C4568DD40C560054D6D6805F4404121
:10187000890B074D6B5CC568B5FBF3F5056130BDA1
:101880000010024000127A0000093D0069080020A3
:1018900079080020704710B500F002F810BD000074
:1018A0000CB50020019000903348006840F480306F
:1018B0003149086000BF3048006800F400300090F3
:1018C0000198401C0190009818B90198B0F5A06FDC
:1018D000F1D12948006800F4003010B101200090D7
:1018E00001E0002000900098012843D123480068BF
:1018F00040F01000214908600846006820F003000D
:1019000008600846006840F0020008601A48406815
:10191000194948600846406848600846406840F4F5
:10192000806048600846406820F47C1048600846A3
:10193000406840F4E81048600846006840F0807055
:10194000086000BF0C48006800F000700028F9D063
:101950000948406820F0030007494860084640688D
:1019600040F00200486000BF0348406800F00C00EF
:101970000828F9D10CBD00000010024000200240F0
:10198000042808D14FF0E021096941F004014FF02B
:10199000E022116107E04FF0E021096921F0040124
:1019A0004FF0E022116170477047000010B51348F6
:1019B000006840F00100114908600846406810497D
:1019C00008400E494860084600680E4908400B4927
:1019D00008600846006820F48020086008464068D7
:1019E00020F4FE0048604FF41F008860FFF753FFAB
:1019F0004FF000600449086010BD00000010024074
:101A00000000FFF8FFFFF6FE08ED00E030B589B0FA
:101A100005460C4601210846FFF7A2FE01210520DC
:101A2000FFF7AEFE0220ADF8200018208DF823004D
:101A300003208DF8220008A91448FFF77DF8ADF8BF
:101A400018500020ADF81A00ADF81600ADF814409B
:101A500005A94FF0804000F0ADF96020ADF804001A
:101A60000120ADF806000020ADF80C0001A94FF0F0
:101A7000804000F037F90821C80600F085F90121FF
:101A8000880700F0A7F809B030BD00000008014049
:101A900030B589B005460C4601210846FFF760FEC7
:101AA00001210520FFF76CFE0120ADF82000182071
:101AB0008DF8230003208DF8220008A91448FFF7B1
:101AC0003BF8ADF818500020ADF81A00ADF816003C
:101AD000ADF8144005A94FF0804000F06BF960208C
:101AE000ADF804000120ADF806000020ADF80C00B0
:101AF00001A94FF0804000F09FF80821C80600F0CF
:101B0000E7F80121880700F065F809B030BD000052
:101B10000008014010B5FFF7B1FD0446FFF7E6F8F5
:101B20000121024800F053F810BD000000040040FD
:101B30007FB505460C4601210220FFF711FEADF8E6
:101B40000850ADF804400020ADF80600ADF80A00DA
:101B500001A90E4800F02EF9012211460B4800F0B1
:101B600062F81D208DF8000001208DF8010003208F
:101B70008DF8020001208DF803006846FFF770FB26
:101B80000121024800F026F87FBD0000000400405B
:101B900010B501210A4800F035F801280AD1094999
:101BA000086980470021064800F001F964210448D3
:101BB00000F0F7F80121024800F009F810BD00001C
:101BC00000080040BC080020CA4302827047CA4394
:101BD0000282704721B1028842F00102028004E0D3
:101BE00002884FF6FE731A40028070470146888CC7
:101BF000704702460020138A0B400BB1012000E021
:101C00000020704730B50246002000230024158ACA
:101C100005EA0103958905EA010413B10CB101201D
:101C200000E0002030BD1AB183890B43838102E0BC
:101C300083898B438381704770B500240022002381
:101C4000058C4FF6FE7635400584028C8388048B24
:101C50004FF68F752C40B51E2C400D882C43751EF9
:101C60002A400D892A434D882A43144DA8420BD09F
:101C7000134DA84208D0134DA84205D0124DA842DA
:101C800002D0124DA84213D14FF6F7752A404D8964
:101C90002A434FF6FB752A408D882A434FF6FF658D
:101CA0002B404FF6FF552B408D892B43CD892B437D
:101CB00083800483CD888586028470BD002C01401A
:101CC0000034014000400140004401400048014010
:101CD0000A460021018B4FF6F77319401143018327
:101CE0007047000070B5002400220023058C4FF6D9
:101CF000EF7635400584028C8388048B48F6FF75A7
:101D00002C404FF6FF452C400D884FF6FF7606EA33
:101D100005252C434FF6DF752A400D8906EA051587
:101D20002A434D8806EA05152A43154DA84202D0DC
:101D3000144DA8421DD14FF67F752A404D894FF6AC
:101D4000FF7606EA05152A434FF6BF752A408D88AF
:101D500006EA05152A434FF6FF352B404FF2FF7573
:101D60002B408D8906EA85052B43CD8906EA85053A
:101D70002B4383800483CD880587028470BD0000D7
:101D8000002C0140003401400A460021018B4FF233
:101D9000FF7319404FF6FF7303EA022319430183CF
:101DA00070478185704781867047018770478184BD
:101DB00070470000002202881D4B98420ED01D4B38
:101DC00098420BD0B0F1804F08D01B4B984205D001
:101DD0001A4B984202D01A4B984204D14FF68F7397
:101DE0001A404B881A43174B984207D0164B98421B
:101DF00004D04FF6FF431A40CB881A4302808B88E9
:101E000083850B8803850A4B98420BD0094B984277
:101E100008D00E4B984205D00D4B984202D00D4B86
:101E2000984201D10B7A0386012383827047000018
:101E3000002C014000340140000400400008004034
:101E4000000C004000100040001400400040014021
:101E500000440140004801407FB505460C46012181
:101E60000420FFF77DFCADF80850ADF804400020D9
:101E7000ADF80A00ADF8060001A90D48FFF79AFF7A
:101E8000012241210A48FFF7CEFE1E208DF80000F6
:101E900003208DF801008DF8020001208DF8030069
:101EA0006846FFF7DDF901210148FFF793FE7FBD8A
:101EB0000008004010B540F225511D4800F04AF8D6
:101EC00010B31B4800F002F9C4B21A48008800F4AD
:101ED0000040C8B91748008800F4804060B10A2C5F
:101EE00003D000201349088020E01248008840F405
:101EF00000401049088019E00D2C06D10D480088DB
:101F000040F480400B49088010E00A480088C0F384
:101F10000D0009490C5407480088401C05490880F9
:101F200008460088C72801DD0020088010BD000099
:101F30000038014030080020B009002021B182891A
:101F400042F40052828104E082894DF6FF731A4008
:101F50008281704770B502460024002300250020CE
:101F600040F66A16B14200D100BFC1F3421501F03C
:101F70001F03012606FA03F3012D02D1968933408F
:101F800006E0022D02D1168A334001E0968A3340E2
:101F90000C12012606FA04F41688344013B10CB171
:101FA000012000E0002070BDF0B5034600240026AB
:101FB0000025002040F66A17B94200D100BF18463C
:101FC000C1F3421401F01F06012707FA06F5012CA0
:101FD00001D10C3004E0022C01D1103000E01430AB
:101FE0001AB107682F43076002E00768AF43076034
:101FF000F0BD00002DE9F04786B005460E460024EE
:10200000A24600BFA1460027B08900B100BF2F46FD
:102010002C8A4CF6FF700440F08804432C82AC8973
:102020004EF6F3100440B0883189084371890843A3
:102030000443AC81AC8A4FF6FF400440B0890443AE
:10204000AC8201A8FFF7BCFB1F48874202D1DDF834
:1020500010A001E0DDF80CA0A88900F4004040B118
:102060000AEBCA0000EB0A1031684900B0FBF1F836
:1020700007E00AEBCA0000EB0A1031688900B0FBE8
:10208000F1F86420B8FBF0F004012009642101FBA1
:102090001089A88900F4004040B1322000EBC9004B
:1020A000B0FBF1F000F00700044308E0322000EB41
:1020B00009106421B0FBF1F000F00F0004432C8103
:1020C00006B0BDE8F087000000380140014688886E
:1020D000C0F30800704700BFFEE7490050EAC12086
:1020E00018BF04204A0D18BF40F0010040F2FF72F3
:1020F000B2EB515F08BF40F00200012808BF052085
:1021000070472DE9F0414F1E00EBC7010446D1E9AD
:10211000000115461E4637F006020DD02A4633460A
:1021200004F08EFB7F1E04EBC703D3E9002304F009
:1021300037F937F00602F1D1022F25D0042F13D042
:10214000062F18BFBDE8F0812A46334604F078FB1D
:10215000D4E90A2304F024F92A46334604F070FB3C
:10216000D4E9082304F01CF92A46334604F068FB3E
:10217000D4E9062304F014F92A46334604F060FB40
:10218000D4E9042304F00CF92A46334604F058FB42
:10219000D4E9022304F004F92A46334604F050FB44
:1021A000D4E90023BDE8F04104F0FAB8012205F0BB
:1021B000F2B904F0F5B8002213461046114604F0B7
:1021C000ABB90000024A0020110705F0E4B9000095
:1021D00001FDFFFF30380A2801D20120704700209E
:1021E000704700BF704700002DE9FE4F0746884644
:1021F0000026684601F010FA002444E057F8240055
:1022000058F82410A0EB010ABAF1000F01DB514687
:1022100001E0CAF10001084604F0B8FF83464FF020
:102220008F4104F081FE81465DF82400002104F016
:102230003DFF18D05DF82410484604F075FE824634
:102240004FF07E5105F000F9054600BF25F0004033
:1022500082460F48416A504605F0C4F812D2012068
:10226000A04006430EE00A48C169484604F0BAFFA0
:1022700005D30748016A484605F0B4F802D20120A8
:10228000A0400643641C032CB8DB3046BDE8FE8F3B
:10229000647E00082DE9F04D8D4F21F0004A86B094
:1022A00005460C46BA452ADBAAEB070028430AD0AC
:1022B0008848824501DC1AD1CDB106B02846BDE878
:1022C000F04DFFF773BF844A844B284604F0B8FAF8
:1022D00007460E46824A834B2846214604F0B0FA50
:1022E00006B03A463346BDE8F04D04F059B8012037
:1022F000FEF700FA06B0BDE8F04DFFF75CBF7A4884
:10230000824542DABAF1795F0BDA2846FFF7E5FE3B
:10231000042808BFFFF756FF284606B02146BDE84F
:10232000F08D2A460B46104604F08AFA8346024690
:102330006E480E460B4606217844FFF7E2FE5A46E9
:10234000334604F07DFA804669488A465A46334649
:1023500004217844FFF7D5FE5A46334604F070FA5C
:1023600000223B4604F01CF802460B46404651460C
:1023700004F0D2F82A46234604F062FA06B02A4650
:102380002346BDE8F04D04F00BB8284624F0004188
:1023900000223D463B4604F051FB4FF0FF3205F072
:1023A000FAF80646024653480F460B460621784483
:1023B000FFF7A7FE32463B4604F042FACDE90001A2
:1023C0004D4832463B4604217844FFF79AFE324698
:1023D0003B4604F035FA00222B4603F0E1FF83462A
:1023E00002913046394602F093FE804643480D463E
:1023F000504517DCDDE900015A46029B04F08CF8D9
:1024000042462B4604F01CFA42462B4603F0C8FF16
:10241000012205F0C0F8304A304B04F001FC304A8C
:10242000304B4CE04FF0000A52460B46404603F05A
:10243000B7FFCDE9031052462B461046194604F06B
:10244000FFF932463B4604F0F9FADDE9033204F0C5
:1024500063F806460F46DDE900015A46029B04F088
:102460005BF88346009101223046394605F093F827
:10247000194A1A4B04F0E2FA06460F46012240467A
:10248000294605F088F85A46009B04F0D9F93246EF
:102490003B4604F0C5FB06460F460122504629463E
:1024A00005F079F80E4DDFF858802A46434604F0CF
:1024B000C5FA32463B4604F0C1FA2A46434604F0C8
:1024C000BDFA002CD8BF81F0004106B0BDE8F08D08
:1024D0000000F03F0000F07F075C143326A6913C1B
:1024E000182D4454FB21F93F0000E03F84670000B1
:1024F0009A6700000E670000246700003333EF3F47
:10250000FB21E93F2DE9F84F04460D4621F000403C
:1025100000917349814211DC7249884201DC06D185
:102520002CB120462946BDE8F84FFFF73FBE6E4864
:10253000002DCCBF6D496E49BDE8F88F6D498142D1
:1025400011DD6D498142D8BF4FF0FF366DDD204669
:102550002946FFF7C2FD042808BFFFF733FE2046D7
:102560002946BDE8F88F6549654F25F00045814251
:1025700033DD6449814219DD002632464FF0804345
:102580002046294603F00CFF80468A460122204659
:10259000294605F000F800223B4604F041FB424684
:1025A000534603F0B9FF04460D463EE001260022E3
:1025B000BA463B462046294603F0F2FE80460F46C7
:1025C000002253462046294604F02AFB42463B4659
:1025D00003F0A2FF04460D4627E04B4981421BDD74
:1025E000DFF828A10226002253462046294604F09F
:1025F00027F900223B4603F0D3FE80460F46002217
:1026000053462046294604F00BFB42463B4603F066
:1026100083FF04460D4608E0032622462B46002091
:102620003B4903F079FF04460D4622462B461046EF
:10263000194604F005F98B46824602460B4604F023
:10264000FFF807460246334888460B460621784481
:10265000FFF757FD52465B4604F0F2F882462E48DB
:102660008B463A46434605217844FFF74AFD3A46F1
:10267000434604F0E5F802460B46002E5046594604
:102680000CDA03F08DFE22462B4604F0D9F801B097
:1026900022462B46BDE8F04F04F0D0B903F080FE8F
:1026A00022462B4604F0CCF81C4A7A4402EBC603BF
:1026B000D3E9002304F0B4FA22462B4604F0B0FA22
:1026C000174A7A4402EBC603D3E9002304F0B6F9B3
:1026D000009A002AB8BF81F00041BDE8F88F0000E1
:1026E000000010440000F07F182D4454FB21F93FF6
:1026F000FB21F9BF0000DC3F0000203E0000F33F5B
:102700000000F03F0000E63F008003400000F83F7B
:102710000000F0BF26650000E46400008264000051
:102720004A6400002DE9F04D9446CCF1000423F0FA
:1027300000464CEA0404594F46EAD4749A46884647
:1027400021F00042BC4206D8454240EA050442EA74
:10275000D474BC4204D9BDE8F04D6246FFF729BDF0
:10276000AAF14055A5F17F6555EA0C040BD002246F
:1027700004EAAA744A4DDFF82CE144EAD87452EA1C
:10278000000B04D00CE0BDE8F04DFFF7BBBE002C01
:1027900014BF012CBDE8F08D022C30D0032C32D0B8
:1027A00056EA0C0B0AD0BE4220D1BA4209D126F01B
:1027B000804622F080423346114617E000291ADB9A
:1027C00025E0DFF8E4B0FB44002C04BFDBE90001A6
:1027D000BDE8F08D012C02BFDBE9000181F0004172
:1027E000BDE8F08D022C0AD0032C0CD0BA4212D1D5
:1027F000B8F1000F0BDA2A482C49BDE8F08D2846C5
:102800002B49BDE8F08D28467146BDE8F08D24487F
:102810002849BDE8F08D921B12153C2AC4BF204FF9
:10282000244E10DCBAF1000FBEBF12F13C0F00279E
:102830003E4608DB624603F06FFE21F00041FFF7E1
:1028400061FE07460E4694B1012C08BF86F0004693
:102850000DD0194A194B022C3846314615D004F0D8
:10286000DFF92A46BDE8F04D114B04F0D9B900223A
:1028700013463846314603F0A7FF04BF0220FDF798
:1028800039FF38463146BDE8F08D04F0C9F92A46D3
:10289000BDE8F04D064B04F0D1B800000000F07F19
:1028A000182D4454FB2109C0DE630000FB21F9BF51
:1028B000FB210940FB21F93F075C143326A6A13C0C
:1028C0002DE9F0410446E07800F0C006E07800F021
:1028D0003F05607800F0010098B1EF102846E91735
:1028E00005EB5171C910A5EBC101491C01F0FF08AE
:1028F0000B48006820B10A484146026838469047B4
:1029000000BF607800F0080030B10548406818B199
:10291000B011034A516888470020BDE8F0810000EB
:10292000780A002010B56FF00400FFF729F80A4874
:1029300000680A49B0FBF1F00949087008460078C0
:1029400000EB4001C1EBC0104FF6FF7101EAC0007F
:102950000449088010BD00000000002000127A0029
:10296000280800202A0800200146114A12884A43FC
:102970004FF0E0235A6100229A611A46126942F030
:1029800001021A6100BF4FF0E022106900F001025D
:102990001AB100F48032002AF5D04FF0E02212691B
:1029A00022F001024FF0E0231A6100229A61704781
:1029B0002A0800200146114A12784A434FF0E023CA
:1029C0005A6100229A611A46126942F001021A61A4
:1029D00000BF4FF0E022106900F001021AB100F4CC
:1029E0008032002AF5D04FF0E022126922F0010275
:1029F0004FF0E0231A6100229A61704728080020F6
:102A000038B5044664B120208DF8000028208DF8E8
:102A1000010030208DF8020038208DF8030004E01A
:102A2000A32204216846FDF7DDFD6A46042140F635
:102A30009E2002F071FA01F05BFE38BD3EB50446FF
:102A400002208DF80000CA208DF80100E3208DF8E7
:102A5000020009208DF803006A460421682002F074
:102A60005BFAA3208DF8000004F0400048B1C020BC
:102A70008DF80100C8208DF80200C2208DF80300F7
:102A800006E0A3208DF801008DF802008DF8030008
:102A900004F4C07048B1C4208DF80400CC208DF837
:102AA0000500C6208DF8060006E0A3208DF804007E
:102AB0008DF805008DF80600A3208DF807008DF82D
:102AC00008008DF809006A460A2140F6A72002F0A6
:102AD00023FA04F0030018B120208DF8000002E072
:102AE000D8208DF800006A46012140F6B62002F099
:102AF00013FA04F0200018B1012000F0ADF802E054
:102B0000002000F0A9F804F4C07008B304F4807049
:102B100060B1B2208DF800008B208DF80100B62046
:102B20008DF802009B208DF803000BE0B0208DF89B
:102B3000000080208DF80100B4208DF80200902064
:102B40008DF803006A46042140F6A22002F0E4F961
:102B500004F0010020B3F8208DF800006A4601213E
:102B60004FF40B6002F0D8F9FA21072000F02CFC9A
:102B7000072000F0F3FB012000F013FC642000F0BC
:102B8000F3FC4FF4FA7000F002FDC821304800F069
:102B9000A3FB282000F0BCFB0A2000F0CCFB08E0DF
:102BA000D8208DF800006A4601214FF40B6002F036
:102BB000B3F904F0020018B1D9208DF8000002E04A
:102BC000D8208DF800006A46012140F23D7002F0E5
:102BD000A3F904F0040018B1012000F069F802E044
:102BE000002000F065F804F0100018B10120FFF794
:102BF00007FF02E00020FFF703FF44F0080015493B
:102C0000488101F075FD00201249887304F04000EE
:102C100018B10846807B801D887304F4C07020B111
:102C20000C48807B801D0B49887304F0140020B190
:102C30000848807B10300749887304F0030020B1F6
:102C40000448807B001D0349887300203EBD0000BE
:102C500009E3CA02780A00203EB504466CB10EA111
:102C6000D1E900208968CDE9002002916A46092156
:102C70004FF4976002F050F93EBD0AA2D2E900106D
:102C80009268CDE9010200916A4609214FF49760EC
:102C900002F042F9F0E70000B8AAB38DB4980D3500
:102CA0005D000000B8AAAAAAB088C3C5C70000008A
:102CB00038B5044664B1C0208DF80000C2208DF8FC
:102CC0000100C4208DF80200C6208DF8030004E046
:102CD0008B2204216846FDF785FC6A46042140F6F4
:102CE000982002F019F901F003FD38BD10B5C82392
:102CF0004FF48062024940F6F63001F08DFB10BDC2
:102D00008C7E00082DE9F04F8DB0074688461546A9
:102D10009946DDE9166B0024002030806B49887BE2
:102D20005A4605A901F044FC18B1601E0DB0BDE87B
:102D3000F08F6648807A00F01400002867D09DF874
:102D4000140000069DF8151040EA01409DF8161089
:102D500040EA01209DF81710084328609DF81800EC
:102D600000069DF8191040EA01409DF81A1040EA4B
:102D700001209DF81B10084368609DF81C000006A8
:102D80009DF81D1040EA01409DF81E1040EA012008
:102D90009DF81F100843A8609DF8200000069DF8CC
:102DA000211040EA01409DF8221040EA01209DF8E0
:102DB00023100843E86004F11000C4B2286800142E
:102DC0000190686800140290A86800140390E868F5
:102DD0000014049001984043029901FB01000399FB
:102DE00001FB0100049901FB010ABAF1706F02DBDB
:102DF000BAF1885F05DD01F07BFC00203080401EC9
:102E000094E7B6F9000040F48070308000BF2F488E
:102E1000807A00F0400020B305A9601C085C095DC1
:102E200040EA012000B2A8F8000005A9E01C095CF6
:102E300005AAA01C105C41EA002000B2A8F802001C
:102E400005A9601D095C201D105C41EA002000B24C
:102E5000A8F80400A01DC4B2B6F9000040F00800B4
:102E600030801A48408900F4C07008B305A9601C7E
:102E7000085C095D40EA012000B2388005A9E01C29
:102E8000095C05AAA01C105C41EA002000B2788011
:102E900005A9601D095C201D105C41EA002000B2FC
:102EA000B880A01DC4B2B6F9000040F070003080B8
:102EB0000648807A00F0030018B105A90819FFF749
:102EC000FFFC484600F03AFF00202FE7780A002078
:102ED00070B588B0064601A801F0F2F8BDF804000C
:102EE0000021C90341EA5045C4034448007A00F078
:102EF000030056F8200005904048007A00F00400D6
:102F000010B10598404205903C48007AC0F3C100DA
:102F100056F8200006903948007A00F0200010B1E1
:102F20000698404206903548007AC0F3811056F862
:102F3000200007903148008900F4807010B1079894
:102F4000404207900598C117A0FB042301FB043100
:102F500000FB0510810041EA927005900698C117A8
:102F6000A0FB042301FB043100FB0510810041EAB2
:102F7000927006900798C117A0FB042301FB04314F
:102F800000FB0510810041EA927007900598000E41
:102F90008DF808000598000C8DF809000598000AC6
:102FA0008DF80A000598C0B28DF80B000698000E47
:102FB0008DF80C000698000C8DF80D000698000A9C
:102FC0008DF80E000698C0B28DF80F000798000E1D
:102FD0008DF810000798000C8DF811000798000A72
:102FE0008DF812000798C0B28DF8130002AA0C21C8
:102FF0004FF4257001F090FF08B070BD780A0020F2
:1030000030B585B0044616A207CA02AB07C3C82C68
:1030100003DD4FF0FF3005B030BDC82090FBF4F069
:10302000401E85B2280A8DF80000E8B28DF8010034
:103030006A46022140F2162001F06EFF10B14FF0F7
:10304000FF30E8E702AA0C2140F6C12001F064FF3E
:1030500010B14FF0FF30DEE7044884810020DAE74A
:10306000FEF2ABC4AAF1DFDFBBAFDFDF780A0020DE
:103070001FB504464848007A00F0030054F82000C9
:1030800001904548007A00F0040010B101984042D8
:1030900001904148007AC0F3C10054F8200002902A
:1030A0003D48007A00F0200010B1029840420290A2
:1030B0003948007AC0F3811054F820000390364854
:1030C000008900F4807010B10398404203903349A6
:1030D000019880FB0101800F40EA810001902F4997
:1030E000029880FB0110820042EA917002902B4905
:1030F000039880FB0110820042EA917003900198CE
:10310000000E8DF800000198000C8DF80100019868
:10311000000A8DF802000198C0B28DF803006A46DB
:1031200004214FF4747001F0F7FE18B14FF0FF3036
:1031300004B010BD0298000E8DF800000298000C3B
:103140008DF801000298000A8DF802000298C0B2C2
:103150008DF803006A4604214FF4757001F0DCFE1F
:1031600010B14FF0FF30E3E70398000E8DF8000038
:103170000398000C8DF801000398000A8DF80200F6
:103180000398C0B28DF803006A4604214FF47670AC
:1031900001F0C2FECCE70000780A002009E3CA0271
:1031A00010B586B0044647A00068039046A00068AA
:1031B000029046A00068019045A00068009004F0CD
:1031C000030003A9085C8DF8140003A8C4F3C1012F
:1031D000405C8DF8150003A8C4F38111405C8DF8A4
:1031E000160004F0030002A9085C8DF8100002A884
:1031F000C4F3C101405C8DF8110002A8C4F3811131
:10320000405C8DF8120005AA032140F2264001F02F
:1032100083FE18B14FF0FF3006B010BD04AA0321A1
:1032200040F22A4001F078FE10B14FF0FF30F3E792
:10323000019805900098049004F0040058B19DF89E
:10324000140040F001008DF814009DF8100040F0CB
:1032500001008DF8100004F0200058B19DF8150011
:1032600040F001008DF815009DF8110040F00100BC
:103270008DF8110004F4807058B19DF8160040F0EC
:1032800001008DF816009DF8120040F001008DF845
:10329000120005AA03214FF4886001F03DFE10B131
:1032A0004FF0FF30B8E704AA032140F2314001F0AB
:1032B00033FE10B14FF0FF30AEE706480481002026
:1032C000AAE700004CCD6C000CC92C0036567600E5
:1032D00026466600780A0020F8B505460E464FF4EB
:1032E0007A7095FBF0F000FB06F4200E8DF80000DC
:1032F000200C8DF80100200A8DF80200E0B28DF854
:1033000003006A4604214FF4AE7001F005FEF8BDDB
:1033100038B50446052094FBF0F084B220128DF8F5
:103320000000E0B28DF801006A4602214FF4AD7052
:1033300001F0F2FD38BD38B50446052094FBF0F0ED
:1033400084B220128DF80000E0B28DF801006A46C8
:1033500002214FF4AC7001F0DFFD38BD38B50446F2
:103360000020009004F0010020B19DF8000040F022
:103370003000009004F0020020B19DF8000040F001
:103380000C00009004F0040020B19DF8000040F013
:10339000030000906A4601214FF4A47001F0BCFDC7
:1033A00038BD38B50446012C01DA012402E0042CB2
:1033B00000DD0424601EC0B200906A46012140F284
:1033C0004F1001F0A9FD38BD2DE9FC4706460F4618
:1033D00006F0070010B1B7F5C86F03DD4FF0FF30FE
:1033E000BDE8FC87384603F0E9FE8146594903F001
:1033F0009BFD8046684600F03DFE9DF800000228D7
:1034000006D0042816D0082826D0102848D135E048
:103410004FF08D41404603F019FF814603F096FEC0
:1034200084B24D49404603F011FF814603F08EFE01
:1034300085B238E04FF08C41404603F007FF8146EB
:1034400003F084FE84B24549404603F0FFFE814606
:1034500003F07CFE85B226E04FF08B41404603F03E
:10346000F5FE814603F072FE84B23D49404603F00A
:10347000EDFE814603F06AFE85B214E04FF08A410A
:10348000404603F0E3FE814603F060FE84B2354916
:10349000404603F0DBFE814603F058FE85B202E0B1
:1034A0004FF0FF309CE700BF20128DF80400E0B21F
:1034B0008DF8050028128DF80600E8B28DF8070097
:1034C00006F00100A0B101AA02214FF4EA7001F058
:1034D00023FD10B14FF0FF3082E70DF1060202210B
:1034E0004FF4927001F018FD10B14FF0FF3077E704
:1034F00006F00200A0B101AA02214FF4EC7001F025
:103500000BFD10B14FF0FF306AE70DF1060202210A
:103510004FF4947001F000FD10B14FF0FF305FE701
:1035200006F00400A0B101AA02214FF4EE7001F0F0
:10353000F3FC10B14FF0FF3052E70DF1060202210B
:103540004FF4967001F0E8FC10B14FF0FF3047E700
:10355000002045E700004843000040460000C04509
:10356000000040450000C04438B50446052094FBE7
:10357000F0F085B228128DF80000E8B28DF8010055
:103580006A4602214FF4EF7001F0C6FC38BD38B531
:103590000446052094FBF0F085B228128DF8000057
:1035A000E8B28DF801006A4602214FF4ED7001F097
:1035B000B3FC38BD10B50446A1B24FF08040FEF711
:1035C000F4FBA1B24FF08040FEF7EDFB4FF4005149
:1035D0000948FDF785FB4FF480510748FDF782FB52
:1035E0004FF480410448FDF77BFB4FF40041024853
:1035F000FDF778FB10BD0000000C014000BF054A3C
:10360000128802F04002002AF9D0C2B2014B1B1D01
:103610001A807047003801407CB505462849496842
:10362000087801AB04220D21FDF73BFD08B107200E
:103630007CBD9DF80700C0F301109DF8041001F057
:10364000E00140EAE1008DF800009DF80700C0F3BA
:1036500081009DF8051001F0E00140EAE1008DF8DD
:1036600001009DF8070000F003009DF8061001F02E
:10367000E00140EAE1008DF8020000241CE01DF8A2
:10368000040018B9002045F8240013E00D4845F85F
:10369000240006E055F824000B4903F0D7FD45F857
:1036A00024001DF80400401EC0B20DF804000028DC
:1036B000F0D100BF601CC4B2032CE0DB0020B7E7F0
:1036C000340800207B14AE3E1D5A843F2DE9F04F94
:1036D00087B005460C46914601208DF81000002069
:1036E0008DF81100FE4A1268917CFD4A52681078EC
:1036F00004AB0222FDF77BFD20B14FF0FF3007B095
:10370000BDE8F08FC820FFF72FF900208DF81000DA
:10371000F34A1268D17BF24A5268107804AB012256
:10372000FDF765FD10B14FF0FF30E8E7EC4A126895
:103730005179EB4A5268107804AB0122FDF757FD2E
:1037400010B14FF0FF30DAE7E54A1268917CE44AA5
:103750005268107804AB0122FDF749FD10B14FF01B
:10376000FF30CCE7DE4A1268D17DDD4A526810781E
:1037700004AB0122FDF73BFD10B14FF0FF30BEE777
:10378000D74A12681179D64A5268107804AB0122E0
:10379000FDF72DFD10B14FF0FF30B0E70C208DF894
:1037A0001000CF4A12681179CD4A5268107804ABE4
:1037B0000122FDF71CFD10B14FF0FF309FE70F20F5
:1037C000FFF7D2F8C648806A407A8DF81000C44AE4
:1037D00012689178C24A5268107804AB0122FDF752
:1037E00006FD10B14FF0FF3089E7BD48806A007ACE
:1037F0008DF81000BA4A12685178B94A52681078A8
:1038000004AB0122FDF7F3FC10B14FF0FF3076E777
:10381000B9F1000F07D0B248806A807A40F0E0002A
:103820008DF8100004E0AE48806A807A8DF81000B0
:10383000AB4A12689179AA4A5268107804AB012207
:10384000FDF7D5FC10B14FF0FF3058E7B9F1000F8C
:1038500007D0A348806AC07A40F0E0008DF81000DD
:1038600003E0A048C07A8DF810009D4A1268D17913
:103870009B4A5268107804AB0122FDF7B8FC10B1E6
:103880004FF0FF303BE7B9F1000F02D0C820FFF73F
:103890006BF840208DF81000914A12681179904A17
:1038A0005268107804AB0122FDF7A1FC10B14FF073
:1038B000FF3024E778208DF81000894A126851798A
:1038C000874A5268107804AB0122FDF790FC10B1D2
:1038D0004FF0FF3013E783498889FFF745F8002050
:1038E0008DF810007E4A126851797D4A526810782E
:1038F00004AB0122FDF77BFC10B14FF0FF30FEE678
:10390000774A1268917A764A5268107804AB02229C
:10391000FDF7C7FB10B14FF0FF30F0E69DF8110046
:103920009DF8101040EA012B0C209BFBF0F0C6B272
:103930000020A86068602860A06060602060824607
:1039400065E0674A1268D17A654A5268107804AB1C
:103950000C22FDF7A6FB10B14FF0FF30CFE69DF82B
:1039600011009DF8101040EA012000B2ADF80800E7
:103970009DF813009DF8121040EA012000B2ADF846
:103980000A009DF815009DF8141040EA012000B2CD
:10399000ADF80C00BDF90810206808442060BDF99E
:1039A0000A10606808446060BDF90C10A068084403
:1039B000A0609DF817009DF8161040EA012000B2A3
:1039C000ADF800009DF819009DF8181040EA01209C
:1039D00000B2ADF802009DF81B009DF81A1040EAF5
:1039E000012000B2ADF80400BDF9001028680844B9
:1039F0002860BDF90210686808446860BDF90410C9
:103A0000A8680844A8600AF1010000F0FF0AB24566
:103A100097DB3448D0F800C02868C117090441EA90
:103A200010410704624600233846FCF702FC324688
:103A30000023CDE90201FCF7FCFB28602948D0F8FF
:103A400000C06868C117090441EA104107046246D2
:103A500000233846FCF7EDFB32460023CDE9020196
:103A6000FCF7E7FB68601F48D0F800C0A868C117E2
:103A7000090441EA10410704624600233846FCF776
:103A8000D8FB32460023CDE90201FCF7D2FBA86047
:103A90001448D0F804C02068C117090441EA104155
:103AA0000704624600233846FCF7C3FB3246002376
:103AB000CDE90201FCF7BDFB20600A48D0F804C044
:103AC0006068C117090441EA1041070462460023F7
:103AD0003846FCF7AEFB32460023CDE9020103E095
:103AE00034080020647E0008FCF7A3FB60601148E6
:103AF000D0F804C0A068C117090441EA10410704C6
:103B0000624600233846FCF794FB32460023CDE999
:103B10000201FCF78EFBA060A068002804DDA0680D
:103B2000A0F58030A06003E0A06800F58030A060C0
:103B30000020E4E5647E00082DE9FC5F0746884626
:103B400000263F494968087801AB03220D21FDF7A3
:103B5000A8FA10B10720BDE8FC9F9DF8040000F012
:103B60001F008DF804009DF8050000F01F008DF87F
:103B700005009DF8060000F01F008DF806000024E7
:103B800059E057F8240058F82410A0EB010BBBF1C2
:103B9000000F01DB594601E0CBF10001084603F0BC
:103BA000F5FA4FF08F41009003F0BEF9824601A86C
:103BB000005D78B32349086803F000FB834659464B
:103BC000214803F0B1F9814604E02049484603F05A
:103BD0003DFB814601A8005D401EC0B201A9085509
:103BE0000028F2D14946504603F09EF983464FF033
:103BF0007E5103F029FC054600BF25F000408346B6
:103C000010488169584603F0EDFB13D20120A04013
:103C100006430FE0FFE70B480169504603F0E2FA64
:103C200005D308484169504603F0DCFB02D201206D
:103C3000A0400643641C032CA3DB30468BE7000046
:103C400034080020647E000800B04C4554E3853FF2
:103C500010B50446204600F00FF80346E01C00F0C3
:103C60000BF843EAC00083B2A01D00F005F843EA58
:103C7000801083B2184610BD014691F90020002A39
:103C800001DD00201EE091F90020002A01DA042065
:103C900018E091F90120002A01DD012012E091F9DC
:103CA0000120002A01DA05200CE091F90220002A07
:103CB00001DD022006E091F90220002A01DA062047
:103CC00000E0072070470000FEF72CFEFDF7C2FA67
:103CD000FDF728FB002141F61F40FDF797FE00216C
:103CE00041F61F40FDF7D4FE41F61F4140F2E73098
:103CF000FDF71EFF01F0F0F9FCF7A0FE0C4801F003
:103D00002DFA0C48416848208847FDF74DF9FDF72A
:103D1000E9FAFDF791FC5A200749086000BF00F05E
:103D200059F90028FBD101E0FCF7D2FEFCE70000C6
:103D300020A10700BC0800202408002070470000D4
:103D400070B50446002624F00104184890F82400B9
:103D500008B1002070BD1548807A10B94FF0FF30CF
:103D6000F8E71248057C807A20401049087408461C
:103D7000007CA04202D04FF0FF3600E0002614B9CC
:103D80000A48007D18B1012001F05EF902E0002030
:103D900001F05AF93CB100F0ABFC20B103480574C6
:103DA0004FF0FF30D6E73046D4E70000340800205B
:103DB0002DE9F04F99B004460D4616464FF07E5758
:103DC0004FF000084FF000094FF0000A12A813A9A5
:103DD00018AB0EAACDE9001014A916A8FEF792FFA1
:103DE00018B1012019B0BDE8F08FBDF84C0000F407
:103DF000807000287ED00E9803F0C8F983464FF0FB
:103E00009D4103F091F807460F9803F0BFF98346F0
:103E10004FF09D4103F088F88046109803F0B6F902
:103E200083464FF09D4103F07FF88146119803F0DF
:103E3000ADF983464FF09D4103F076F8824639464E
:103E40004FF0804003F002FA4946059003F0FEF976
:103E5000414607904FF0404003F0F8F95146059075
:103E600003F0F4F90690079902F0F0FF834602F0A0
:103E7000C1FFCDE90801FEF70DFA4FF06632544B51
:103E8000CDE90A0102F0DCFCCDE90C0102F056FAA2
:103E9000206049464FF0804003F0D8F9494602902F
:103EA00003F0D4F9414604904FF0404003F0CEF9BE
:103EB0004146029003F0CAF90390049903F0C4FA52
:103EC00083464FF07E5102F0C1FF059002F092FF51
:103ED000CDE9080139464FF0804003F0B7F941467B
:103EE000039003F0B3F9494604904FF0804003F08B
:103EF000ADF900E068E05146039003F0A7F983466E
:103F0000049902F0A3FF059002F074FFCDE90601C9
:103F1000DDE90823FEF706FC4FF066322C4BCDE9B5
:103F20000A0102F08DFCCDE90C0102F007FA2860CD
:103F30005146504603F08AF949460490484603F03A
:103F400085F941460390404603F080F939460190D7
:103F5000384603F07BF90090019902F077FF029058
:103F6000039903F071FA8346049903F06DFA059002
:103F700002F040FFCDE908015146384603F066F9EA
:103F800049460490404603F061F90390049902F019
:103F90005DFF4FF08041059003F058F9834602F031
:103FA00029FFCDE90601DDE90823FEF7BBFB4FF051
:103FB0006632074BCDE90A0102F042FCCDE90C0163
:103FC00002F0BCF9306001E002200BE7002009E7B5
:103FD00066A64C4070B50024FCF7C6FE00F024F93C
:103FE000002840D1782000F02FFFC4B20CB101208E
:103FF00070BD7820FFF7A4FEC4B20CB10220F7E731
:104000000A2000F0D3FEC4B20CB10320F0E7FEF7A3
:104010006DFEC4B20CB10420EAE71548FFF718FEA4
:104020000546FFF7BDF8C4B20CB10520E0E740F249
:104030007310FEF703FDC4B20CB10620D8E70A20C6
:10404000FEF7DEFFC4B20CB10720D1E700F0B2FFEB
:1040500004460CB10820CBE7012000F0A3FDC4B258
:104060001CB10920C4E70A20C2E70020C0E7000015
:104070006008002001461148407A30B1012807D07D
:10408000022808D003280CD108E0022008700BE0B9
:104090000420087008E00820087005E0102008706F
:1040A00002E04FF0FF30704700BF0448C07C18B1F9
:1040B00008784006000E08700020F4E7340800205D
:1040C00001461348407A30B1012808D002280AD0AE
:1040D000032810D10BE04FF4804008800EE041F639
:1040E0009C7008800AE04FF48050088006E04FF48E
:1040F0000060088002E04FF0FF30704700BF0448C6
:10410000C07C10B10888401008800020F5E700004E
:104110003408002001460248007C087000207047E7
:104120003408002001460F48007A30B1012807D03A
:10413000022809D003280FD10AE0FA2008800EE0F7
:104140004FF4FA7008800AE04FF47A70088006E0B5
:104150004FF4FA60088002E00020088000BF00BF32
:10416000002070473408002001460E48007A30B124
:10417000012807D0022808D003280CD108E00A48FB
:1041800008600BE00948086008E00948086005E09D
:104190000848086002E04FF0FF30704700BF002081
:1041A000FBE70000340800200000034300008342C6
:1041B000333303423333834101461248C07A08281F
:1041C00017D2DFE800F01704070A0D101318BC20FF
:1041D000088013E06220088010E02A2008800DE0AB
:1041E000142008800AE00A20088007E005200880E3
:1041F00004E000BF00BF0020088000BF00BF002017
:1042000070470000340800200146064890F824005A
:1042100010B14FF0FF3070470248C089088000207D
:10422000F9E70000340800201CB580208DF800005C
:10423000654A1268917C644A526810786B46012284
:10424000FCF7D5FF10B14FF0FF301CBD6420FEF726
:104250008BFB00208DF800005B4A1268917C5A4A63
:10426000526810786B460122FCF7C1FF10B14FF085
:10427000FF30EAE7544A1268917D534A5268107839
:104280006B460622FCF70DFF10B14FF0FF30DCE764
:104290009DF80500C007400F9DF8031001F00101D3
:1042A00040EA41009DF8011001F0010140EA0104DB
:1042B00094B1012C03D101214348C17431E0022C97
:1042C00003D100214048C1742BE021463FA0FBF7F9
:1042D000D5FF4FF0FF30B8E73B4A1268D1783A4A31
:1042E000526810786B460122FCF7DBFE10B14FF0EC
:1042F000FF30AAE79DF8000000F00F042CB93D48FC
:10430000FBF7BCFF4FF0FF309FE7042C06D13AA02B
:10431000FBF7B4FF01212C48C17402E000212A48B8
:10432000C174FF2128488172FF2027490872FF21AC
:1043300025484172C1724FF6FF71C181FF2101749E
:1043400081740121017380F82210002180F823106C
:10435000417501751630016041608160163880F842
:10436000241080F82510C1844FF4FA6000F062FC3C
:1043700010B14FF0FF3068E7022000F02BFB10B1C6
:104380004FF0FF3061E72A2000F0CEFC10B14FF073
:10439000FF305AE7322000F009FD10B14FF0FF3036
:1043A00053E70020FFF7CCFC10B14FF0FF304CE793
:1043B000002000F051FB10B14FF0FF3045E7002026
:1043C00000F042FD002040E734080020556E737570
:1043D00070706F7274656420736F66747761726554
:1043E0002070726F64756374207265762025642E68
:1043F0000A000000B08B000848616C662073656E8F
:104400007369746976697479207061727420666F5B
:10441000756E642E0A0000002DE9F04385B0054654
:104420000E4690469946294890F8250020B14FF055
:10443000FF3005B0BDE8F08316B94FF0FF30F8E764
:10444000002423E0281B102801DD102000E0281B99
:1044500087B232193946204600F05EFD10B14FF0A8
:10446000FF30E6E701AA3946204600F001F910B115
:104470004FF0FF30DDE730193A4601A9FCF786F826
:1044800010B16FF00100D4E7E01984B2AC42D9DB7F
:104490004FEA28208DF8000008F0FF008DF8010099
:1044A0000A4A1268917E094A526810786B460222C5
:1044B000FCF79DFE10B14FF0FF30BAE70121034831
:1044C00080F82510A0F826900020B2E734080020DC
:1044D00038B50446282C02DD4FF0FF3038BDDCB97A
:1044E000002000F0EBFB00208DF8000007208DF885
:1044F00001002E4A1268917C2C4A526810786B4653
:104500000222FCF774FE10B14FF0FF30E6E7002105
:10451000264801750020E1E7012000F0CFFB2020B4
:104520008DF80000012C06D100208DF80100052037
:1045300000F0FAFB17E0052C06DC01208DF80100E5
:10454000052000F0F1FB0EE0142C06DC02208DF8B3
:1045500001000A2000F0E8FB05E003208DF80100CF
:10456000142000F0E1FB9DF80100072101EB801011
:10457000C0B28DF801000D4A1268917C0B4A526856
:1045800010786B460222FCF732FE10B14FF0FF307C
:10459000A4E70821054881720021017301210175FA
:1045A0000020FFF7CDFB002098E700003408002032
:1045B000F8B504460F4616462C4890F8240010B96A
:1045C0004FF0FF30F8BD2948807A10B94FF0FF3026
:1045D000F8E7264A1268917A244A526810786B46A6
:1045E0000222FCF75EFD10B14FF0FF30EAE79DF8C4
:1045F00001009DF8001040EA0125A54203DA0020E1
:104600003070401EDEE7194840684088B5EB600F07
:1046100017DD164A1268517C144A526810786B46AE
:104620000122FCF73EFD10B14FF0FF30CAE79DF8C4
:10463000000000F0100020B100F05AF86FF0010007
:10464000C0E7E2B2094B1B68D97A084B5B6818785F
:104650003B46FCF726FD10B14FF0FF30B2E795FB6B
:10466000F4F0401E30700020ACE700003408002059
:10467000F8B504460D46164616B94FF0FF30F8BDA2
:104680001A48807A10B94FF0FF30F8E720128DF801
:104690000000E0B28DF801009DF8010028441349A4
:1046A00049684989884202DD4FF0FF30E7E70F4A49
:1046B0001268117E0D4A526810786B460222FCF790
:1046C00096FD10B14FF0FF30D9E7EAB2074B1B68F7
:1046D000597D064B5B6818783346FCF7E2FC10B155
:1046E0004FF0FF30CBE70020C9E70000340800207E
:1046F00008B57048807A10B94FF0FF3008BD00202F
:1047000000906C4A1268D17B6A4A526810786B46F6
:104710000122FCF76CFD10B14FF0FF30EEE7654A67
:1047200012685179634A526810786B460122FCF78F
:104730005EFD10B14FF0FF30E0E75E4A126811797C
:104740005C4A526810786B460122FCF750FD10B1AC
:104750004FF0FF30D2E7574890F82400002853D09C
:104760000C200090534A12681179524A526810780E
:104770006B460122FCF73BFD10B14FF0FF30BDE767
:104780003220FEF7F1F8C02000904A48807A00F00D
:10479000010020B19DF8000040F020000090454A43
:1047A00012681179434A526810786B460122FCF76F
:1047B0001EFD10B14FF0FF30A0E73E48407C10B125
:1047C0000220009001E0002000903A4A1268D17B5C
:1047D000384A526810786B460122FCF708FD10B188
:1047E0004FF0FF308AE700200090324A126851797A
:1047F000304A526810786B460122FCF7F8FC00281A
:1048000055D04FF0FF3079E704200090294A126814
:104810001179284A526810786B460122FCF7E7FCB0
:1048200010B14FF0FF3069E72248807C20B9214861
:10483000807A00F0010010B94020009001E0602073
:1048400000901C4A126811791A4A526810786B4617
:104850000122FCF7CCFC10B14FF0FF304EE73220C4
:10486000FEF782F81348407C10B10120009001E06F
:10487000002000900F4A1268D17B0E4A52681078CF
:104880006B460122FCF7B3FC10B14FF0FF3035E767
:10489000084A12685179074A52681078054B10335C
:1048A0000122FCF7A4FC10B14FF0FF3026E70020F6
:1048B00024E70000340800202DE9F04F8DB0834636
:1048C0000F4602200C90424890F8240020B10020AE
:1048D00000F068F9012600E0002603A8FFF722FC9B
:1048E00005A8FFF7C7FB01A8FFF766FC02A8FFF7C2
:1048F0008BFC374890F80AA004A8FFF70BFC0024B3
:1049000007E0002239465846FEF7E0FE00B902E013
:10491000641C022CF5DB00BF022C01D1002528E02D
:10492000002407E0012206A909A8FEF7CFFE00B97E
:1049300002E0641C022CF5DB00BF022C01D1002533
:1049400017E006A93846FDF74FFC00F0FF0809A95B
:104950005846FFF7F1F800F0FF090025B9F1000F04
:1049600001D145F00105B8F1000F01D145F0020574
:1049700000BFFF2016490872FF2115484172C1721D
:104980004FF6FF71C181FF21817201740121017312
:10499000BDF80C0000F04EF99DF8140000F01AF874
:1049A000BDF8040000F0C0F9BDF8080000F0FEF901
:1049B000504600F049FA9DF81000FFF7C1F916B112
:1049C000012000F0EFF828460DB0BDE8F08F0000A0
:1049D0003408002038B504461E48807A10B94FF0DC
:1049E000FF3038BD022C06D0042C07D0082C08D08C
:1049F000102C0CD108E0002000900BE00820009063
:104A000008E01020009005E01820009002E04FF030
:104A1000FF30E6E700BF0F48407A9DF80010B0EB8A
:104A2000E10F01D10020DCE70A4A1268D179094A76
:104A3000526810786B460122FCF7D9FB10B14FF099
:104A4000FF30CEE79DF80000C110024841720020FF
:104A5000C7E700003408002038B504465048807C81
:104A6000A04201D1002038BD002C46D04C4A12682B
:104A700011794B4A526810786B460122FCF711FB02
:104A800010B14FF0FF30EEE79DF8000020F020005D
:104A90000090434A12681179414A526810786B4677
:104AA0000122FCF7A4FB10B14FF0FF30DBE703203D
:104AB000FDF75AFF02200090394890F8220020B1FB
:104AC0009DF8000040F080000090354890F82300E9
:104AD00020B19DF8000040F030000090304A12688C
:104AE000117D2F4A526810786B460122FCF77FFB3C
:104AF000002851D04FF0FF30B5E7294A12681179EC
:104B0000274A526810786B460122FCF7CAFA10B1A6
:104B10004FF0FF30A7E72248807A00F0010028B16B
:104B20009DF8000040F02000009004E09DF8000097
:104B300020F0200000901A4A12681179184A526831
:104B400010786B460122FCF752FB10B14FF0FF309A
:104B500089E70320FDF708FF114890F8220010B103
:104B60008020009001E0002000900D4890F8230084
:104B700020B19DF8000040F030000090084A126813
:104B8000117D074A526810786B460122FCF72FFB13
:104B900010B14FF0FF3066E701488474002062E7EF
:104BA0003408002038B50446214890F82400A0427B
:104BB00001D1002038BD24B31D4890F8250010B95C
:104BC0004FF0FF30F6E7002000F03EFA0020FFF73C
:104BD00043FF1749C88C00F0E9F800200090144901
:104BE000496808786B4601222321FCF700FB01216C
:104BF0000F4880F82410012000F026FAFFF778FD16
:104C000013E0002000F020FA0948007C00900849D9
:104C1000496808786B4601222321FCF7E8FA002155
:104C2000034880F82410FFF763FD0020C2E700006E
:104C30003408002038B504461F48807A10B94FF078
:104C4000FF3038BDFA2C09D0B4F5FA7F09D0B4F59D
:104C50007A7F09D0B4F5FA6F0CD108E000200090FB
:104C60000BE00820009008E01020009005E01820DC
:104C7000009002E04FF0FF30E3E700BF0E48007AFB
:104C80009DF80010B0EBE10F01D10020D9E70A4AEE
:104C900012689179084A526810786B460122FCF735
:104CA000A6FA10B14FF0FF30CBE79DF80000C0101E
:104CB000014908720020C4E73408002038B50446D2
:104CC000184890F82300A04201D1002038BD14B14B
:104CD0003020009001E0002000901248807C20B13C
:104CE0009DF8000040F0020000900E4890F822006D
:104CF00020B19DF8000040F080000090094A126841
:104D0000117D084A526810786B460122FCF76FFA51
:104D100010B14FF0FF30D9E7024880F8234000205F
:104D2000D4E700003408002038B504461E48807AD5
:104D300010B94FF0FF3038BDBC2C02DB01200090D1
:104D400015E0622C02DB0220009010E02A2C02DB2E
:104D5000032000900BE0142C02DB0420009006E0FE
:104D60000A2C02DB0520009001E0062000900E488E
:104D7000C07A9DF80010884201D10020DBE70A4A82
:104D800012689178084A526810786B460122FCF745
:104D90002EFA10B14FF0FF30CDE79DF80010024819
:104DA000C1720020C7E700003408002038B504466F
:104DB0002448807A10B94FF0FF3038BD214890F870
:104DC000240010B14FF0FF30F7E71E48007D50B1CE
:104DD00034B1282C04DCE0B2FFF77AFB0020ECE7CA
:104DE0000020FFF775FB042C01DA042404E0B4F57D
:104DF0007A7F01DD4FF47A744FF47A7090FBF4F00F
:104E0000401EC0B200900F4A126851780D4A526895
:104E100010786B460122FCF7EAF910B14FF0FF3031
:104E2000CBE79DF80000401C4FF47A7191FBF0F045
:104E300081B20448C1810146C9894810FFF774FF57
:104E40000020BAE73408002038B5044604F07000AA
:104E500010B10120009005E014B10020009001E0A5
:104E6000402000902B4A1268917C2A4A52681078A0
:104E70006B460122FCF7BBF920B100212548817265
:104E8000481E38BD9DF8000020F040012148017304
:104E90000020009004F0400020B99DF8000040F090
:104EA0000400009004F0200020B99DF8000040F0BC
:104EB0000200009004F0100020B99DF8000040F0BE
:104EC0000100009004F0080020B99DF8000040F0B7
:104ED000380000900F4A1268D17C0E4A5268107850
:104EE0006B460122FCF783F920B100210948817249
:104EF000481EC6E724B1082C02D00020FFF7DEFED2
:104F000004488472002101753220FDF72DFD002038
:104F1000B7E7000034080020F8B504460D461646F1
:104F200016B94FF0FF30F8BD1A48807A10B94FF02B
:104F3000FF30F8E720128DF80000E0B28DF8010094
:104F40009DF801002844134949684989884202DDD7
:104F50004FF0FF30E7E70F4A1268117E0D4A5268A2
:104F600010786B460222FCF742F910B14FF0FF3087
:104F7000D9E7EAB2074B1B68597D064B5B68187886
:104F80003346FCF734F910B14FF0FF30CBE7002087
:104F9000C9E700003408002010B50246012000E0F7
:104FA00050430B1EA1F10104E1B2F9D110BD01463D
:104FB0000868704770B588B002A905A8FFF77CFCA7
:104FC0000446032C3ED101A8FFF7CEF8059802F065
:104FD000DDF80646019902F039F9054602F09AF823
:104FE0000590069802F0D2F80646019902F02EF9D3
:104FF000054602F08FF80690079802F0C7F80646BB
:10500000019902F023F9054602F084F8079005A8FB
:10501000FEF72EF86846FFF753F8BDF80010029827
:1050200048430290BDF80010039848430390BDF830
:10503000001004984843049002A8FDF749FF00209F
:1050400008B070BD0120FBE738B50446214890F850
:105050002400C0B114B10220009001E000200090B3
:105060001C4A1268D17B1B4A526810786B46012299
:10507000FCF7BDF810B14FF0FF3038BD9DF80010BF
:105080001448417423E01348807A10B94FF0FF3080
:10509000F3E724B10F48407C08B10020EDE714B1DC
:1050A0000120009001E0002000900A4A1268D17BA4
:1050B000084A526810786B460122FCF798F810B144
:1050C0004FF0FF30D9E79DF80010024841740020EE
:1050D000D3E700003408002008B501210820FCF7C0
:1050E0004FFB4FF47040ADF8000010208DF8030026
:1050F00003208DF8020069460448FBF71DFD4FF4BC
:1051000070410248FBF7ECFD08BD0000000C0140B7
:105110002DE9F04106460F4601F09CFC041E0D46A9
:1051200018BF0120284320F00040C0F17F6000F14B
:10513000E040C00F0ED0301C18BF0120384320F0D3
:105140000040C0F17F6000F1E040C00F04BF0120CB
:10515000FBF7D0FA20462946BDE8F08110B586B0AD
:105160000446012144F20400FCF70AFB4FF40070EE
:10517000ADF8140003208DF8160018208DF81700E4
:1051800005A91C48FBF7D8FC4FF48060ADF814006B
:1051900004208DF8170005A91648FBF7CDFC252043
:1051A0008DF8000003208DF801008DF80200012029
:1051B0008DF803006846FCF753F801940020ADF821
:1051C0000800ADF80A00ADF80C00ADF810000C2096
:1051D000ADF80E0001A90848FCF70CFF012240F2CF
:1051E00025510548FCF7E0FE01210348FCF7A6FE27
:1051F00006B010BD000801400038014030B595B040
:10520000054613AB12AA09A9284600F039FA04464C
:1052100014B1204615B030BD0020149026E022497C
:1052200009689DF8502001EBC20113AB11AA486830
:1052300001A900F025FA04460CB12046EAE709A9C5
:1052400001A800F0BBFC60B99DF844009DF848102F
:10525000884201DD0220DDE79DF850001249887583
:105260000AE09DF85000401CC0B214900E48007D2A
:105270009DF850108842D2DC00BF0B48007D9DF89D
:105280005010884201D10420C4E714A9284600F038
:10529000D7FA04460CB12046BCE79DF850000249FD
:1052A00048750020B6E70000BC0800202DE9F04159
:1052B0009AB09C48847D007DA04202DC1AB0BDE813
:1052C000F0819849096801EBC40106AB07AA486858
:1052D00008A900F0D5F908A993A0FAF7CFFF002696
:1052E00044E09048008B0121B1400840D8B1222110
:1052F0008FA0FAF7C3FF304600F028FB894924311C
:10530000471839468BA0FAF7B9FF222188A0FAF78F
:10531000B5FF304600F01AFB82492431084410A939
:1053200041F8260018E0304600F010FB7D4924319A
:10533000085810A941F826007A48C07D30B910A855
:1053400050F826107CA0FAF799FF05E010A850F855
:1053500026107AA0FAF792FF9DF81C00401EB0427A
:1053600002D078A0FAF78AFF701CC6B29DF81C0024
:105370008642B6DB74A0FAF781FF00F039FB69487A
:10538000407D0B280DD2DFE800F0060D151E2732F8
:105390003F4E5F7287006349096851F834008047C7
:1053A000054690E05F4A126852F83410109888471A
:1053B000054688E05B4B1B6853F83420DDE910019B
:1053C000904705467FE0574F3F6857F8343010A8A4
:1053D00007C89847054676E0DFF848C1DCF800C00A
:1053E0005CF8347010A80FC8B84705466BE01498F5
:1053F000DFF830C10090DCF800C05CF8347010A811
:105400000FC8B84705465EE0DDE91401DFF814C1B6
:10541000CDE90001DCF800C05CF8347010A80FC8BA
:10542000B84705464FE0DDE914121698DFF8F4C0DE
:10543000CDE900120290DCF800C05CF8347010A8CE
:105440000FC8B84705463EE0DDE91423DDE9161034
:10545000DFF8D0C0CDE90023CDE90210DCF800C0B0
:105460005CF8347010A80FC8B84705462BE0DDE99A
:105470001523DDE91710CDE90123CDE903101498B8
:10548000DFF8A0C00090DCF800C05CF8347010A811
:105490000FC8B847054616E0DDE91623DDE9181008
:1054A000CDE90223CDE90410DDE91401DFF874C071
:1054B000CDE90001DCF800C05CF8347010A80FC81A
:1054C000B847054600BF00BF00F050FA9DF818002D
:1054D00001280CD11348C07D20B929461BA0FAF73A
:1054E000CDFE07E029461BA0FAF7C8FE02E018A08F
:1054F000FAF7C4FE0B4890F8EC0088B10948D0F8E0
:10550000F0000A21B0FBF1F201FB12070548D0F8C8
:10551000F000B0FBF1F83A46414611A0FAF7AEFEB2
:1055200000BFCBE6BC0800200D0A25732800000050
:105530002563000025730000256C75003058255840
:10554000000000002C000000290000003D256C75C3
:105550003B0D0A003D305825583B0D0A0000000065
:1055600046756E6374696F6E2052756E2054696D56
:10557000653A25642E2531646D730D0A0000000024
:10558000F0B503461546002000220026002455E011
:105590001F782C2F01D104B901221F78292F01D0A7
:1055A0001F780FB904B94AE0002E34D11F78302F8C
:1055B00002DB1F78392F11DD1F78612F02DB1F7886
:1055C000662F0BDD1F78412F02DB1F78462F05DD8C
:1055D0001F78582F02D01F78782F0CD102B12EE0FF
:1055E0001F78612F03DB1F78203F0F7001E01F78C9
:1055F0000F70491C1FE01F78222F04D102B11EE05A
:105600000126012417E01F78202F14D01F782C2F9B
:1056100011D0FF2613E01F78222F00D1002402B101
:105620000DE044B11F785C2F02D15B1C471CF8B21F
:105630001F780F70491C471CF8B25B1CA8E700BF1D
:1056400000270F702E70F0BD10B5044600201070BA
:105650000BE020780870641C491C1078401C107006
:105660001078984201DB012010BD2078202802D05C
:1056700020780028EDD10020087000BFF4E700007A
:105680002DE9FF4F85B08046894600270020049011
:105690000390012002904FF0000B002544461DE0CE
:1056A0002078202816D005F07F00052812DA0DB9E1
:1056B00045F0800505F07F00042803D120782A28D2
:1056C00000D00EE0207805F07F010DF80100681C85
:1056D000C5B202E0852D00D103E0641C20780028CB
:1056E000DED100BF8DB1002005F07F010DF8010073
:1056F00051A1684600F062FA18B9002108980170BB
:1057000002E001210898017000254FF0000A44468C
:1057100014E0641C0AF1010000F0FF0A2078202840
:1057200002D020782A2809D1204600F0D7F9064671
:10573000282E03D02A2E01D0CDF810A020782828BA
:1057400002D020780028E4D14446049810B104988F
:10575000401C04444FF0000A002654E0207810B9A1
:105760004FF0010A50E02078282803D116B9781CA0
:10577000C7B213E02078292808D13EB917B1781EA6
:10578000C7B201E04FF0010A47B93DE02078222876
:1057900004D10EB9012000E00020064647B9207868
:1057A00020282FD0207889F8000009F1010929E08C
:1057B00020782C2804D101200290681CC5B214E086
:1057C0002078202811D0207828280ED04DB9BBF1A0
:1057D000050F06DA20780DF80B000BF1010000F040
:1057E000FF0B0298401CC0B20290012F0AD1029810
:1057F000022807D10298401CC0B202900398401CB6
:10580000C0B20390641CA9E700BF0398012809D126
:1058100000200DF80B0008A1684600F0CFF908B988
:1058200000200390079903980870002089F8000071
:10583000504609B0BDE8F08F766F69640000000043
:105840002DE9F043B5B005460F460024002604E0DC
:1058500000213D488155701CC6B20A2EF8DB06E0D7
:105860006D1C287818B9012035B0BDE8F083287880
:105870002828F5D16D1C61E034AA69462846FFF757
:105880007FFE064635449DF8D00020B1012827D080
:10589000FF284CD149E09DF8000000B333A96846C9
:1058A00000F027F906460EB10220DDE7204600F0A1
:1058B0004DF825490A31339A0A50A1F12400008B92
:1058C0000121A140884320491A39088304211E4838
:1058D0000155601CC4B20A2C01DD0320C4E726E098
:1058E000684600F087F9401C00F0FF08204600F0F1
:1058F0002DF815490A3100EB01094946684600F0C8
:105900006EF911481A38018B0120A040014388B27A
:105910000D491A3908830C4800F80480601CC4B291
:105920000A2C01DD03209FE701E002209CE700BF75
:105930002878292801D0287800B900E09CE700BF2A
:105940003C70002090E70000D608002002460020AE
:10595000002105E0044B5B5C0344D8B24B1CD9B278
:105960009142F7DB70470000D608002010B50121F6
:105970000D48FCF73EF9012808D10C48D0F8F0009A
:105980004FF6FF7108440949C1F8F0000648FCF7DA
:105990002DF90649D1F8F01008440449C1F8F00087
:1059A0000846D0F8F00010BD00080040BC080020F8
:1059B00010B5044604EBC40000EB04100122C2EB56
:1059C000800081B24FF47A70FCF746FA0120014959
:1059D000C87510BDBC08002010B50246012000E0CB
:1059E00050430B1EA1F10104E1B2F9D110BD00003A
:1059F00010B501210848FCF7E7F84FF6FF7106489B
:105A0000FCF7CFF900210448FCF7D1F90020034945
:105A1000C1F8F00010BD000000080040BC080020E4
:105A200070B51D48008800F40040002833D01A48A3
:105A30000578002019494855194881681748884752
:105A400004461CB91649C868804721E0134800F095
:105A5000DDF80546012D00D02C46CCB1012C06D036
:105A6000022C08D0032C0AD0042C10D10BE00DA07E
:105A7000FAF704FC0BE00EA0FAF700FC07E00FA019
:105A8000FAF7FCFB03E010A0FAF7F8FB00BF00BF39
:105A900000200149088070BD30080020B0090020B6
:105AA000BC080020BAAFCAFDB4EDCEF3210D0A0048
:105AB000B2CECAFDB4EDCEF3210D0A00B2CECAFDBE
:105AC000CCABB6E0210D0A00CEB4D5D2B5BDC6A58B
:105AD000C5E4B5C4BAAFCAFD210D0A000146491C90
